{
	"data": {
		"bytecode": {
			"linkReferences": {},
			"object": "608060405234801561001057600080fd5b50610ccf806100206000396000f3fe6080604052600436106100345760003560e01c806341ed24a21461003957806377988cf814610062578063ccb8c1e01461007e575b600080fd5b34801561004557600080fd5b50610060600480360381019061005b9190610633565b6100bb565b005b61007c600480360381019061007791906106c8565b6102e7565b005b34801561008a57600080fd5b506100a560048036038101906100a09190610749565b61042f565b6040516100b2919061097a565b60405180910390f35b818190508484905014610103576040517f08c379a00000000000000000000000000000000000000000000000000000000081526004016100fa9061093a565b60405180910390fd5b60008590506000610114848461042f565b9050808273ffffffffffffffffffffffffffffffffffffffff1663dd62ed3e33306040518363ffffffff1660e01b815260040161015292919061089a565b60206040518083038186803b15801561016a57600080fd5b505afa15801561017e573d6000803e3d6000fd5b505050506040513d601f19601f820116820180604052508101906101a291906107c3565b10156101e3576040517f08c379a00000000000000000000000000000000000000000000000000000000081526004016101da9061091a565b60405180910390fd5b60005b868690508160ff1610156102dd578273ffffffffffffffffffffffffffffffffffffffff166323b872dd3389898560ff1681811061022757610226610b05565b5b905060200201602081019061023c91906105d9565b88888660ff1681811061025257610251610b05565b5b905060200201356040518463ffffffff1660e01b8152600401610277939291906108c3565b602060405180830381600087803b15801561029157600080fd5b505af11580156102a5573d6000803e3d6000fd5b505050506040513d601f19601f820116820180604052508101906102c99190610796565b5080806102d590610aac565b9150506101e6565b5050505050505050565b81819050848490501461032f576040517f08c379a00000000000000000000000000000000000000000000000000000000081526004016103269061095a565b60405180910390fd5b600061033b838361042f565b905080341461037f576040517f08c379a0000000000000000000000000000000000000000000000000000000008152600401610376906108fa565b60405180910390fd5b60005b85859050811015610427578585828181106103a05761039f610b05565b5b90506020020160208101906103b59190610606565b73ffffffffffffffffffffffffffffffffffffffff166108fc8585848181106103e1576103e0610b05565b5b905060200201359081150290604051600060405180830381858888f19350505050158015610413573d6000803e3d6000fd5b50808061041f90610a63565b915050610382565b505050505050565b600080600090505b8383905081101561047c5783838281811061045557610454610b05565b5b905060200201358261046791906109a6565b9150808061047490610a63565b915050610437565b5092915050565b60008135905061049281610c3d565b92915050565b6000813590506104a781610c54565b92915050565b60008083601f8401126104c3576104c2610b39565b5b8235905067ffffffffffffffff8111156104e0576104df610b34565b5b6020830191508360208202830111156104fc576104fb610b3e565b5b9250929050565b60008083601f84011261051957610518610b39565b5b8235905067ffffffffffffffff81111561053657610535610b34565b5b60208301915083602082028301111561055257610551610b3e565b5b9250929050565b60008083601f84011261056f5761056e610b39565b5b8235905067ffffffffffffffff81111561058c5761058b610b34565b5b6020830191508360208202830111156105a8576105a7610b3e565b5b9250929050565b6000815190506105be81610c6b565b92915050565b6000815190506105d381610c82565b92915050565b6000602082840312156105ef576105ee610b48565b5b60006105fd84828501610483565b91505092915050565b60006020828403121561061c5761061b610b48565b5b600061062a84828501610498565b91505092915050565b60008060008060006060868803121561064f5761064e610b48565b5b600061065d88828901610483565b955050602086013567ffffffffffffffff81111561067e5761067d610b43565b5b61068a888289016104ad565b9450945050604086013567ffffffffffffffff8111156106ad576106ac610b43565b5b6106b988828901610559565b92509250509295509295909350565b600080600080604085870312156106e2576106e1610b48565b5b600085013567ffffffffffffffff811115610700576106ff610b43565b5b61070c87828801610503565b9450945050602085013567ffffffffffffffff81111561072f5761072e610b43565b5b61073b87828801610559565b925092505092959194509250565b600080602083850312156107605761075f610b48565b5b600083013567ffffffffffffffff81111561077e5761077d610b43565b5b61078a85828601610559565b92509250509250929050565b6000602082840312156107ac576107ab610b48565b5b60006107ba848285016105af565b91505092915050565b6000602082840312156107d9576107d8610b48565b5b60006107e7848285016105c4565b91505092915050565b6107f9816109fc565b82525050565b600061080c601583610995565b915061081782610b4d565b602082019050919050565b600061082f601883610995565b915061083a82610b76565b602082019050919050565b6000610852602983610995565b915061085d82610b9f565b604082019050919050565b6000610875602a83610995565b915061088082610bee565b604082019050919050565b61089481610a4c565b82525050565b60006040820190506108af60008301856107f0565b6108bc60208301846107f0565b9392505050565b60006060820190506108d860008301866107f0565b6108e560208301856107f0565b6108f2604083018461088b565b949350505050565b60006020820190508181036000830152610913816107ff565b9050919050565b6000602082019050818103600083015261093381610822565b9050919050565b6000602082019050818103600083015261095381610845565b9050919050565b6000602082019050818103600083015261097381610868565b9050919050565b600060208201905061098f600083018461088b565b92915050565b600082825260208201905092915050565b60006109b182610a4c565b91506109bc83610a4c565b9250827fffffffffffffffffffffffffffffffffffffffffffffffffffffffffffffffff038211156109f1576109f0610ad6565b5b828201905092915050565b6000610a0782610a2c565b9050919050565b6000610a1982610a2c565b9050919050565b60008115159050919050565b600073ffffffffffffffffffffffffffffffffffffffff82169050919050565b6000819050919050565b600060ff82169050919050565b6000610a6e82610a4c565b91507fffffffffffffffffffffffffffffffffffffffffffffffffffffffffffffffff821415610aa157610aa0610ad6565b5b600182019050919050565b6000610ab782610a56565b915060ff821415610acb57610aca610ad6565b5b600182019050919050565b7f4e487b7100000000000000000000000000000000000000000000000000000000600052601160045260246000fd5b7f4e487b7100000000000000000000000000000000000000000000000000000000600052603260045260246000fd5b600080fd5b600080fd5b600080fd5b600080fd5b600080fd5b7f5472616e7366657220616d6f756e74206572726f720000000000000000000000600082015250565b7f4e65656420417070726f766520455243323020746f6b656e0000000000000000600082015250565b7f4c656e67746873206f6620416464726573657320616e6420416d6f756e74732060008201527f4e6f7420457175616c0000000000000000000000000000000000000000000000602082015250565b7f4c656e67746873206f662041646472657373657320616e6420416d6f756e747360008201527f204e4f5420455155414c00000000000000000000000000000000000000000000602082015250565b610c46816109fc565b8114610c5157600080fd5b50565b610c5d81610a0e565b8114610c6857600080fd5b50565b610c7481610a20565b8114610c7f57600080fd5b50565b610c8b81610a4c565b8114610c9657600080fd5b5056fea264697066735822122071de5bb8ae747222f44f03499c807cc70529db729cfdc77dea08796a8165ce0d64736f6c63430008070033",
			"opcodes": "PUSH1 0x80 PUSH1 0x40 MSTORE CALLVALUE DUP1 ISZERO PUSH2 0x10 JUMPI PUSH1 0x0 DUP1 REVERT JUMPDEST POP PUSH2 0xCCF DUP1 PUSH2 0x20 PUSH1 0x0 CODECOPY PUSH1 0x0 RETURN INVALID PUSH1 0x80 PUSH1 0x40 MSTORE PUSH1 0x4 CALLDATASIZE LT PUSH2 0x34 JUMPI PUSH1 0x0 CALLDATALOAD PUSH1 0xE0 SHR DUP1 PUSH4 0x41ED24A2 EQ PUSH2 0x39 JUMPI DUP1 PUSH4 0x77988CF8 EQ PUSH2 0x62 JUMPI DUP1 PUSH4 0xCCB8C1E0 EQ PUSH2 0x7E JUMPI JUMPDEST PUSH1 0x0 DUP1 REVERT JUMPDEST CALLVALUE DUP1 ISZERO PUSH2 0x45 JUMPI PUSH1 0x0 DUP1 REVERT JUMPDEST POP PUSH2 0x60 PUSH1 0x4 DUP1 CALLDATASIZE SUB DUP2 ADD SWAP1 PUSH2 0x5B SWAP2 SWAP1 PUSH2 0x633 JUMP JUMPDEST PUSH2 0xBB JUMP JUMPDEST STOP JUMPDEST PUSH2 0x7C PUSH1 0x4 DUP1 CALLDATASIZE SUB DUP2 ADD SWAP1 PUSH2 0x77 SWAP2 SWAP1 PUSH2 0x6C8 JUMP JUMPDEST PUSH2 0x2E7 JUMP JUMPDEST STOP JUMPDEST CALLVALUE DUP1 ISZERO PUSH2 0x8A JUMPI PUSH1 0x0 DUP1 REVERT JUMPDEST POP PUSH2 0xA5 PUSH1 0x4 DUP1 CALLDATASIZE SUB DUP2 ADD SWAP1 PUSH2 0xA0 SWAP2 SWAP1 PUSH2 0x749 JUMP JUMPDEST PUSH2 0x42F JUMP JUMPDEST PUSH1 0x40 MLOAD PUSH2 0xB2 SWAP2 SWAP1 PUSH2 0x97A JUMP JUMPDEST PUSH1 0x40 MLOAD DUP1 SWAP2 SUB SWAP1 RETURN JUMPDEST DUP2 DUP2 SWAP1 POP DUP5 DUP5 SWAP1 POP EQ PUSH2 0x103 JUMPI PUSH1 0x40 MLOAD PUSH32 0x8C379A000000000000000000000000000000000000000000000000000000000 DUP2 MSTORE PUSH1 0x4 ADD PUSH2 0xFA SWAP1 PUSH2 0x93A JUMP JUMPDEST PUSH1 0x40 MLOAD DUP1 SWAP2 SUB SWAP1 REVERT JUMPDEST PUSH1 0x0 DUP6 SWAP1 POP PUSH1 0x0 PUSH2 0x114 DUP5 DUP5 PUSH2 0x42F JUMP JUMPDEST SWAP1 POP DUP1 DUP3 PUSH20 0xFFFFFFFFFFFFFFFFFFFFFFFFFFFFFFFFFFFFFFFF AND PUSH4 0xDD62ED3E CALLER ADDRESS PUSH1 0x40 MLOAD DUP4 PUSH4 0xFFFFFFFF AND PUSH1 0xE0 SHL DUP2 MSTORE PUSH1 0x4 ADD PUSH2 0x152 SWAP3 SWAP2 SWAP1 PUSH2 0x89A JUMP JUMPDEST PUSH1 0x20 PUSH1 0x40 MLOAD DUP1 DUP4 SUB DUP2 DUP7 DUP1 EXTCODESIZE ISZERO DUP1 ISZERO PUSH2 0x16A JUMPI PUSH1 0x0 DUP1 REVERT JUMPDEST POP GAS STATICCALL ISZERO DUP1 ISZERO PUSH2 0x17E JUMPI RETURNDATASIZE PUSH1 0x0 DUP1 RETURNDATACOPY RETURNDATASIZE PUSH1 0x0 REVERT JUMPDEST POP POP POP POP PUSH1 0x40 MLOAD RETURNDATASIZE PUSH1 0x1F NOT PUSH1 0x1F DUP3 ADD AND DUP3 ADD DUP1 PUSH1 0x40 MSTORE POP DUP2 ADD SWAP1 PUSH2 0x1A2 SWAP2 SWAP1 PUSH2 0x7C3 JUMP JUMPDEST LT ISZERO PUSH2 0x1E3 JUMPI PUSH1 0x40 MLOAD PUSH32 0x8C379A000000000000000000000000000000000000000000000000000000000 DUP2 MSTORE PUSH1 0x4 ADD PUSH2 0x1DA SWAP1 PUSH2 0x91A JUMP JUMPDEST PUSH1 0x40 MLOAD DUP1 SWAP2 SUB SWAP1 REVERT JUMPDEST PUSH1 0x0 JUMPDEST DUP7 DUP7 SWAP1 POP DUP2 PUSH1 0xFF AND LT ISZERO PUSH2 0x2DD JUMPI DUP3 PUSH20 0xFFFFFFFFFFFFFFFFFFFFFFFFFFFFFFFFFFFFFFFF AND PUSH4 0x23B872DD CALLER DUP10 DUP10 DUP6 PUSH1 0xFF AND DUP2 DUP2 LT PUSH2 0x227 JUMPI PUSH2 0x226 PUSH2 0xB05 JUMP JUMPDEST JUMPDEST SWAP1 POP PUSH1 0x20 MUL ADD PUSH1 0x20 DUP2 ADD SWAP1 PUSH2 0x23C SWAP2 SWAP1 PUSH2 0x5D9 JUMP JUMPDEST DUP9 DUP9 DUP7 PUSH1 0xFF AND DUP2 DUP2 LT PUSH2 0x252 JUMPI PUSH2 0x251 PUSH2 0xB05 JUMP JUMPDEST JUMPDEST SWAP1 POP PUSH1 0x20 MUL ADD CALLDATALOAD PUSH1 0x40 MLOAD DUP5 PUSH4 0xFFFFFFFF AND PUSH1 0xE0 SHL DUP2 MSTORE PUSH1 0x4 ADD PUSH2 0x277 SWAP4 SWAP3 SWAP2 SWAP1 PUSH2 0x8C3 JUMP JUMPDEST PUSH1 0x20 PUSH1 0x40 MLOAD DUP1 DUP4 SUB DUP2 PUSH1 0x0 DUP8 DUP1 EXTCODESIZE ISZERO DUP1 ISZERO PUSH2 0x291 JUMPI PUSH1 0x0 DUP1 REVERT JUMPDEST POP GAS CALL ISZERO DUP1 ISZERO PUSH2 0x2A5 JUMPI RETURNDATASIZE PUSH1 0x0 DUP1 RETURNDATACOPY RETURNDATASIZE PUSH1 0x0 REVERT JUMPDEST POP POP POP POP PUSH1 0x40 MLOAD RETURNDATASIZE PUSH1 0x1F NOT PUSH1 0x1F DUP3 ADD AND DUP3 ADD DUP1 PUSH1 0x40 MSTORE POP DUP2 ADD SWAP1 PUSH2 0x2C9 SWAP2 SWAP1 PUSH2 0x796 JUMP JUMPDEST POP DUP1 DUP1 PUSH2 0x2D5 SWAP1 PUSH2 0xAAC JUMP JUMPDEST SWAP2 POP POP PUSH2 0x1E6 JUMP JUMPDEST POP POP POP POP POP POP POP POP JUMP JUMPDEST DUP2 DUP2 SWAP1 POP DUP5 DUP5 SWAP1 POP EQ PUSH2 0x32F JUMPI PUSH1 0x40 MLOAD PUSH32 0x8C379A000000000000000000000000000000000000000000000000000000000 DUP2 MSTORE PUSH1 0x4 ADD PUSH2 0x326 SWAP1 PUSH2 0x95A JUMP JUMPDEST PUSH1 0x40 MLOAD DUP1 SWAP2 SUB SWAP1 REVERT JUMPDEST PUSH1 0x0 PUSH2 0x33B DUP4 DUP4 PUSH2 0x42F JUMP JUMPDEST SWAP1 POP DUP1 CALLVALUE EQ PUSH2 0x37F JUMPI PUSH1 0x40 MLOAD PUSH32 0x8C379A000000000000000000000000000000000000000000000000000000000 DUP2 MSTORE PUSH1 0x4 ADD PUSH2 0x376 SWAP1 PUSH2 0x8FA JUMP JUMPDEST PUSH1 0x40 MLOAD DUP1 SWAP2 SUB SWAP1 REVERT JUMPDEST PUSH1 0x0 JUMPDEST DUP6 DUP6 SWAP1 POP DUP2 LT ISZERO PUSH2 0x427 JUMPI DUP6 DUP6 DUP3 DUP2 DUP2 LT PUSH2 0x3A0 JUMPI PUSH2 0x39F PUSH2 0xB05 JUMP JUMPDEST JUMPDEST SWAP1 POP PUSH1 0x20 MUL ADD PUSH1 0x20 DUP2 ADD SWAP1 PUSH2 0x3B5 SWAP2 SWAP1 PUSH2 0x606 JUMP JUMPDEST PUSH20 0xFFFFFFFFFFFFFFFFFFFFFFFFFFFFFFFFFFFFFFFF AND PUSH2 0x8FC DUP6 DUP6 DUP5 DUP2 DUP2 LT PUSH2 0x3E1 JUMPI PUSH2 0x3E0 PUSH2 0xB05 JUMP JUMPDEST JUMPDEST SWAP1 POP PUSH1 0x20 MUL ADD CALLDATALOAD SWAP1 DUP2 ISZERO MUL SWAP1 PUSH1 0x40 MLOAD PUSH1 0x0 PUSH1 0x40 MLOAD DUP1 DUP4 SUB DUP2 DUP6 DUP9 DUP9 CALL SWAP4 POP POP POP POP ISZERO DUP1 ISZERO PUSH2 0x413 JUMPI RETURNDATASIZE PUSH1 0x0 DUP1 RETURNDATACOPY RETURNDATASIZE PUSH1 0x0 REVERT JUMPDEST POP DUP1 DUP1 PUSH2 0x41F SWAP1 PUSH2 0xA63 JUMP JUMPDEST SWAP2 POP POP PUSH2 0x382 JUMP JUMPDEST POP POP POP POP POP POP JUMP JUMPDEST PUSH1 0x0 DUP1 PUSH1 0x0 SWAP1 POP JUMPDEST DUP4 DUP4 SWAP1 POP DUP2 LT ISZERO PUSH2 0x47C JUMPI DUP4 DUP4 DUP3 DUP2 DUP2 LT PUSH2 0x455 JUMPI PUSH2 0x454 PUSH2 0xB05 JUMP JUMPDEST JUMPDEST SWAP1 POP PUSH1 0x20 MUL ADD CALLDATALOAD DUP3 PUSH2 0x467 SWAP2 SWAP1 PUSH2 0x9A6 JUMP JUMPDEST SWAP2 POP DUP1 DUP1 PUSH2 0x474 SWAP1 PUSH2 0xA63 JUMP JUMPDEST SWAP2 POP POP PUSH2 0x437 JUMP JUMPDEST POP SWAP3 SWAP2 POP POP JUMP JUMPDEST PUSH1 0x0 DUP2 CALLDATALOAD SWAP1 POP PUSH2 0x492 DUP2 PUSH2 0xC3D JUMP JUMPDEST SWAP3 SWAP2 POP POP JUMP JUMPDEST PUSH1 0x0 DUP2 CALLDATALOAD SWAP1 POP PUSH2 0x4A7 DUP2 PUSH2 0xC54 JUMP JUMPDEST SWAP3 SWAP2 POP POP JUMP JUMPDEST PUSH1 0x0 DUP1 DUP4 PUSH1 0x1F DUP5 ADD SLT PUSH2 0x4C3 JUMPI PUSH2 0x4C2 PUSH2 0xB39 JUMP JUMPDEST JUMPDEST DUP3 CALLDATALOAD SWAP1 POP PUSH8 0xFFFFFFFFFFFFFFFF DUP2 GT ISZERO PUSH2 0x4E0 JUMPI PUSH2 0x4DF PUSH2 0xB34 JUMP JUMPDEST JUMPDEST PUSH1 0x20 DUP4 ADD SWAP2 POP DUP4 PUSH1 0x20 DUP3 MUL DUP4 ADD GT ISZERO PUSH2 0x4FC JUMPI PUSH2 0x4FB PUSH2 0xB3E JUMP JUMPDEST JUMPDEST SWAP3 POP SWAP3 SWAP1 POP JUMP JUMPDEST PUSH1 0x0 DUP1 DUP4 PUSH1 0x1F DUP5 ADD SLT PUSH2 0x519 JUMPI PUSH2 0x518 PUSH2 0xB39 JUMP JUMPDEST JUMPDEST DUP3 CALLDATALOAD SWAP1 POP PUSH8 0xFFFFFFFFFFFFFFFF DUP2 GT ISZERO PUSH2 0x536 JUMPI PUSH2 0x535 PUSH2 0xB34 JUMP JUMPDEST JUMPDEST PUSH1 0x20 DUP4 ADD SWAP2 POP DUP4 PUSH1 0x20 DUP3 MUL DUP4 ADD GT ISZERO PUSH2 0x552 JUMPI PUSH2 0x551 PUSH2 0xB3E JUMP JUMPDEST JUMPDEST SWAP3 POP SWAP3 SWAP1 POP JUMP JUMPDEST PUSH1 0x0 DUP1 DUP4 PUSH1 0x1F DUP5 ADD SLT PUSH2 0x56F JUMPI PUSH2 0x56E PUSH2 0xB39 JUMP JUMPDEST JUMPDEST DUP3 CALLDATALOAD SWAP1 POP PUSH8 0xFFFFFFFFFFFFFFFF DUP2 GT ISZERO PUSH2 0x58C JUMPI PUSH2 0x58B PUSH2 0xB34 JUMP JUMPDEST JUMPDEST PUSH1 0x20 DUP4 ADD SWAP2 POP DUP4 PUSH1 0x20 DUP3 MUL DUP4 ADD GT ISZERO PUSH2 0x5A8 JUMPI PUSH2 0x5A7 PUSH2 0xB3E JUMP JUMPDEST JUMPDEST SWAP3 POP SWAP3 SWAP1 POP JUMP JUMPDEST PUSH1 0x0 DUP2 MLOAD SWAP1 POP PUSH2 0x5BE DUP2 PUSH2 0xC6B JUMP JUMPDEST SWAP3 SWAP2 POP POP JUMP JUMPDEST PUSH1 0x0 DUP2 MLOAD SWAP1 POP PUSH2 0x5D3 DUP2 PUSH2 0xC82 JUMP JUMPDEST SWAP3 SWAP2 POP POP JUMP JUMPDEST PUSH1 0x0 PUSH1 0x20 DUP3 DUP5 SUB SLT ISZERO PUSH2 0x5EF JUMPI PUSH2 0x5EE PUSH2 0xB48 JUMP JUMPDEST JUMPDEST PUSH1 0x0 PUSH2 0x5FD DUP5 DUP3 DUP6 ADD PUSH2 0x483 JUMP JUMPDEST SWAP2 POP POP SWAP3 SWAP2 POP POP JUMP JUMPDEST PUSH1 0x0 PUSH1 0x20 DUP3 DUP5 SUB SLT ISZERO PUSH2 0x61C JUMPI PUSH2 0x61B PUSH2 0xB48 JUMP JUMPDEST JUMPDEST PUSH1 0x0 PUSH2 0x62A DUP5 DUP3 DUP6 ADD PUSH2 0x498 JUMP JUMPDEST SWAP2 POP POP SWAP3 SWAP2 POP POP JUMP JUMPDEST PUSH1 0x0 DUP1 PUSH1 0x0 DUP1 PUSH1 0x0 PUSH1 0x60 DUP7 DUP9 SUB SLT ISZERO PUSH2 0x64F JUMPI PUSH2 0x64E PUSH2 0xB48 JUMP JUMPDEST JUMPDEST PUSH1 0x0 PUSH2 0x65D DUP9 DUP3 DUP10 ADD PUSH2 0x483 JUMP JUMPDEST SWAP6 POP POP PUSH1 0x20 DUP7 ADD CALLDATALOAD PUSH8 0xFFFFFFFFFFFFFFFF DUP2 GT ISZERO PUSH2 0x67E JUMPI PUSH2 0x67D PUSH2 0xB43 JUMP JUMPDEST JUMPDEST PUSH2 0x68A DUP9 DUP3 DUP10 ADD PUSH2 0x4AD JUMP JUMPDEST SWAP5 POP SWAP5 POP POP PUSH1 0x40 DUP7 ADD CALLDATALOAD PUSH8 0xFFFFFFFFFFFFFFFF DUP2 GT ISZERO PUSH2 0x6AD JUMPI PUSH2 0x6AC PUSH2 0xB43 JUMP JUMPDEST JUMPDEST PUSH2 0x6B9 DUP9 DUP3 DUP10 ADD PUSH2 0x559 JUMP JUMPDEST SWAP3 POP SWAP3 POP POP SWAP3 SWAP6 POP SWAP3 SWAP6 SWAP1 SWAP4 POP JUMP JUMPDEST PUSH1 0x0 DUP1 PUSH1 0x0 DUP1 PUSH1 0x40 DUP6 DUP8 SUB SLT ISZERO PUSH2 0x6E2 JUMPI PUSH2 0x6E1 PUSH2 0xB48 JUMP JUMPDEST JUMPDEST PUSH1 0x0 DUP6 ADD CALLDATALOAD PUSH8 0xFFFFFFFFFFFFFFFF DUP2 GT ISZERO PUSH2 0x700 JUMPI PUSH2 0x6FF PUSH2 0xB43 JUMP JUMPDEST JUMPDEST PUSH2 0x70C DUP8 DUP3 DUP9 ADD PUSH2 0x503 JUMP JUMPDEST SWAP5 POP SWAP5 POP POP PUSH1 0x20 DUP6 ADD CALLDATALOAD PUSH8 0xFFFFFFFFFFFFFFFF DUP2 GT ISZERO PUSH2 0x72F JUMPI PUSH2 0x72E PUSH2 0xB43 JUMP JUMPDEST JUMPDEST PUSH2 0x73B DUP8 DUP3 DUP9 ADD PUSH2 0x559 JUMP JUMPDEST SWAP3 POP SWAP3 POP POP SWAP3 SWAP6 SWAP2 SWAP5 POP SWAP3 POP JUMP JUMPDEST PUSH1 0x0 DUP1 PUSH1 0x20 DUP4 DUP6 SUB SLT ISZERO PUSH2 0x760 JUMPI PUSH2 0x75F PUSH2 0xB48 JUMP JUMPDEST JUMPDEST PUSH1 0x0 DUP4 ADD CALLDATALOAD PUSH8 0xFFFFFFFFFFFFFFFF DUP2 GT ISZERO PUSH2 0x77E JUMPI PUSH2 0x77D PUSH2 0xB43 JUMP JUMPDEST JUMPDEST PUSH2 0x78A DUP6 DUP3 DUP7 ADD PUSH2 0x559 JUMP JUMPDEST SWAP3 POP SWAP3 POP POP SWAP3 POP SWAP3 SWAP1 POP JUMP JUMPDEST PUSH1 0x0 PUSH1 0x20 DUP3 DUP5 SUB SLT ISZERO PUSH2 0x7AC JUMPI PUSH2 0x7AB PUSH2 0xB48 JUMP JUMPDEST JUMPDEST PUSH1 0x0 PUSH2 0x7BA DUP5 DUP3 DUP6 ADD PUSH2 0x5AF JUMP JUMPDEST SWAP2 POP POP SWAP3 SWAP2 POP POP JUMP JUMPDEST PUSH1 0x0 PUSH1 0x20 DUP3 DUP5 SUB SLT ISZERO PUSH2 0x7D9 JUMPI PUSH2 0x7D8 PUSH2 0xB48 JUMP JUMPDEST JUMPDEST PUSH1 0x0 PUSH2 0x7E7 DUP5 DUP3 DUP6 ADD PUSH2 0x5C4 JUMP JUMPDEST SWAP2 POP POP SWAP3 SWAP2 POP POP JUMP JUMPDEST PUSH2 0x7F9 DUP2 PUSH2 0x9FC JUMP JUMPDEST DUP3 MSTORE POP POP JUMP JUMPDEST PUSH1 0x0 PUSH2 0x80C PUSH1 0x15 DUP4 PUSH2 0x995 JUMP JUMPDEST SWAP2 POP PUSH2 0x817 DUP3 PUSH2 0xB4D JUMP JUMPDEST PUSH1 0x20 DUP3 ADD SWAP1 POP SWAP2 SWAP1 POP JUMP JUMPDEST PUSH1 0x0 PUSH2 0x82F PUSH1 0x18 DUP4 PUSH2 0x995 JUMP JUMPDEST SWAP2 POP PUSH2 0x83A DUP3 PUSH2 0xB76 JUMP JUMPDEST PUSH1 0x20 DUP3 ADD SWAP1 POP SWAP2 SWAP1 POP JUMP JUMPDEST PUSH1 0x0 PUSH2 0x852 PUSH1 0x29 DUP4 PUSH2 0x995 JUMP JUMPDEST SWAP2 POP PUSH2 0x85D DUP3 PUSH2 0xB9F JUMP JUMPDEST PUSH1 0x40 DUP3 ADD SWAP1 POP SWAP2 SWAP1 POP JUMP JUMPDEST PUSH1 0x0 PUSH2 0x875 PUSH1 0x2A DUP4 PUSH2 0x995 JUMP JUMPDEST SWAP2 POP PUSH2 0x880 DUP3 PUSH2 0xBEE JUMP JUMPDEST PUSH1 0x40 DUP3 ADD SWAP1 POP SWAP2 SWAP1 POP JUMP JUMPDEST PUSH2 0x894 DUP2 PUSH2 0xA4C JUMP JUMPDEST DUP3 MSTORE POP POP JUMP JUMPDEST PUSH1 0x0 PUSH1 0x40 DUP3 ADD SWAP1 POP PUSH2 0x8AF PUSH1 0x0 DUP4 ADD DUP6 PUSH2 0x7F0 JUMP JUMPDEST PUSH2 0x8BC PUSH1 0x20 DUP4 ADD DUP5 PUSH2 0x7F0 JUMP JUMPDEST SWAP4 SWAP3 POP POP POP JUMP JUMPDEST PUSH1 0x0 PUSH1 0x60 DUP3 ADD SWAP1 POP PUSH2 0x8D8 PUSH1 0x0 DUP4 ADD DUP7 PUSH2 0x7F0 JUMP JUMPDEST PUSH2 0x8E5 PUSH1 0x20 DUP4 ADD DUP6 PUSH2 0x7F0 JUMP JUMPDEST PUSH2 0x8F2 PUSH1 0x40 DUP4 ADD DUP5 PUSH2 0x88B JUMP JUMPDEST SWAP5 SWAP4 POP POP POP POP JUMP JUMPDEST PUSH1 0x0 PUSH1 0x20 DUP3 ADD SWAP1 POP DUP2 DUP2 SUB PUSH1 0x0 DUP4 ADD MSTORE PUSH2 0x913 DUP2 PUSH2 0x7FF JUMP JUMPDEST SWAP1 POP SWAP2 SWAP1 POP JUMP JUMPDEST PUSH1 0x0 PUSH1 0x20 DUP3 ADD SWAP1 POP DUP2 DUP2 SUB PUSH1 0x0 DUP4 ADD MSTORE PUSH2 0x933 DUP2 PUSH2 0x822 JUMP JUMPDEST SWAP1 POP SWAP2 SWAP1 POP JUMP JUMPDEST PUSH1 0x0 PUSH1 0x20 DUP3 ADD SWAP1 POP DUP2 DUP2 SUB PUSH1 0x0 DUP4 ADD MSTORE PUSH2 0x953 DUP2 PUSH2 0x845 JUMP JUMPDEST SWAP1 POP SWAP2 SWAP1 POP JUMP JUMPDEST PUSH1 0x0 PUSH1 0x20 DUP3 ADD SWAP1 POP DUP2 DUP2 SUB PUSH1 0x0 DUP4 ADD MSTORE PUSH2 0x973 DUP2 PUSH2 0x868 JUMP JUMPDEST SWAP1 POP SWAP2 SWAP1 POP JUMP JUMPDEST PUSH1 0x0 PUSH1 0x20 DUP3 ADD SWAP1 POP PUSH2 0x98F PUSH1 0x0 DUP4 ADD DUP5 PUSH2 0x88B JUMP JUMPDEST SWAP3 SWAP2 POP POP JUMP JUMPDEST PUSH1 0x0 DUP3 DUP3 MSTORE PUSH1 0x20 DUP3 ADD SWAP1 POP SWAP3 SWAP2 POP POP JUMP JUMPDEST PUSH1 0x0 PUSH2 0x9B1 DUP3 PUSH2 0xA4C JUMP JUMPDEST SWAP2 POP PUSH2 0x9BC DUP4 PUSH2 0xA4C JUMP JUMPDEST SWAP3 POP DUP3 PUSH32 0xFFFFFFFFFFFFFFFFFFFFFFFFFFFFFFFFFFFFFFFFFFFFFFFFFFFFFFFFFFFFFFFF SUB DUP3 GT ISZERO PUSH2 0x9F1 JUMPI PUSH2 0x9F0 PUSH2 0xAD6 JUMP JUMPDEST JUMPDEST DUP3 DUP3 ADD SWAP1 POP SWAP3 SWAP2 POP POP JUMP JUMPDEST PUSH1 0x0 PUSH2 0xA07 DUP3 PUSH2 0xA2C JUMP JUMPDEST SWAP1 POP SWAP2 SWAP1 POP JUMP JUMPDEST PUSH1 0x0 PUSH2 0xA19 DUP3 PUSH2 0xA2C JUMP JUMPDEST SWAP1 POP SWAP2 SWAP1 POP JUMP JUMPDEST PUSH1 0x0 DUP2 ISZERO ISZERO SWAP1 POP SWAP2 SWAP1 POP JUMP JUMPDEST PUSH1 0x0 PUSH20 0xFFFFFFFFFFFFFFFFFFFFFFFFFFFFFFFFFFFFFFFF DUP3 AND SWAP1 POP SWAP2 SWAP1 POP JUMP JUMPDEST PUSH1 0x0 DUP2 SWAP1 POP SWAP2 SWAP1 POP JUMP JUMPDEST PUSH1 0x0 PUSH1 0xFF DUP3 AND SWAP1 POP SWAP2 SWAP1 POP JUMP JUMPDEST PUSH1 0x0 PUSH2 0xA6E DUP3 PUSH2 0xA4C JUMP JUMPDEST SWAP2 POP PUSH32 0xFFFFFFFFFFFFFFFFFFFFFFFFFFFFFFFFFFFFFFFFFFFFFFFFFFFFFFFFFFFFFFFF DUP3 EQ ISZERO PUSH2 0xAA1 JUMPI PUSH2 0xAA0 PUSH2 0xAD6 JUMP JUMPDEST JUMPDEST PUSH1 0x1 DUP3 ADD SWAP1 POP SWAP2 SWAP1 POP JUMP JUMPDEST PUSH1 0x0 PUSH2 0xAB7 DUP3 PUSH2 0xA56 JUMP JUMPDEST SWAP2 POP PUSH1 0xFF DUP3 EQ ISZERO PUSH2 0xACB JUMPI PUSH2 0xACA PUSH2 0xAD6 JUMP JUMPDEST JUMPDEST PUSH1 0x1 DUP3 ADD SWAP1 POP SWAP2 SWAP1 POP JUMP JUMPDEST PUSH32 0x4E487B7100000000000000000000000000000000000000000000000000000000 PUSH1 0x0 MSTORE PUSH1 0x11 PUSH1 0x4 MSTORE PUSH1 0x24 PUSH1 0x0 REVERT JUMPDEST PUSH32 0x4E487B7100000000000000000000000000000000000000000000000000000000 PUSH1 0x0 MSTORE PUSH1 0x32 PUSH1 0x4 MSTORE PUSH1 0x24 PUSH1 0x0 REVERT JUMPDEST PUSH1 0x0 DUP1 REVERT JUMPDEST PUSH1 0x0 DUP1 REVERT JUMPDEST PUSH1 0x0 DUP1 REVERT JUMPDEST PUSH1 0x0 DUP1 REVERT JUMPDEST PUSH1 0x0 DUP1 REVERT JUMPDEST PUSH32 0x5472616E7366657220616D6F756E74206572726F720000000000000000000000 PUSH1 0x0 DUP3 ADD MSTORE POP JUMP JUMPDEST PUSH32 0x4E65656420417070726F766520455243323020746F6B656E0000000000000000 PUSH1 0x0 DUP3 ADD MSTORE POP JUMP JUMPDEST PUSH32 0x4C656E67746873206F6620416464726573657320616E6420416D6F756E747320 PUSH1 0x0 DUP3 ADD MSTORE PUSH32 0x4E6F7420457175616C0000000000000000000000000000000000000000000000 PUSH1 0x20 DUP3 ADD MSTORE POP JUMP JUMPDEST PUSH32 0x4C656E67746873206F662041646472657373657320616E6420416D6F756E7473 PUSH1 0x0 DUP3 ADD MSTORE PUSH32 0x204E4F5420455155414C00000000000000000000000000000000000000000000 PUSH1 0x20 DUP3 ADD MSTORE POP JUMP JUMPDEST PUSH2 0xC46 DUP2 PUSH2 0x9FC JUMP JUMPDEST DUP2 EQ PUSH2 0xC51 JUMPI PUSH1 0x0 DUP1 REVERT JUMPDEST POP JUMP JUMPDEST PUSH2 0xC5D DUP2 PUSH2 0xA0E JUMP JUMPDEST DUP2 EQ PUSH2 0xC68 JUMPI PUSH1 0x0 DUP1 REVERT JUMPDEST POP JUMP JUMPDEST PUSH2 0xC74 DUP2 PUSH2 0xA20 JUMP JUMPDEST DUP2 EQ PUSH2 0xC7F JUMPI PUSH1 0x0 DUP1 REVERT JUMPDEST POP JUMP JUMPDEST PUSH2 0xC8B DUP2 PUSH2 0xA4C JUMP JUMPDEST DUP2 EQ PUSH2 0xC96 JUMPI PUSH1 0x0 DUP1 REVERT JUMPDEST POP JUMP INVALID LOG2 PUSH5 0x6970667358 0x22 SLT KECCAK256 PUSH18 0xDE5BB8AE747222F44F03499C807CC70529DB PUSH19 0x9CFDC77DEA08796A8165CE0D64736F6C634300 ADDMOD SMOD STOP CALLER "
		},
		"gasEstimates": {
			"creation": {
				"codeDepositCost": "655800",
				"executionCost": "689",
				"totalCost": "656489"
			},
			"external": {
				"getSum(uint256[])": "infinite",
				"multiTransferETH(address[],uint256[])": "infinite",
				"multiTransferToken(address,address[],uint256[])": "infinite"
			}
		},
		"methodIdentifiers": {
			"getSum(uint256[])": "ccb8c1e0",
			"multiTransferETH(address[],uint256[])": "77988cf8",
			"multiTransferToken(address,address[],uint256[])": "41ed24a2"
		}
	},
	"abi": [
		{
			"inputs": [
				{
					"internalType": "uint256[]",
					"name": "_arr",
					"type": "uint256[]"
				}
			],
			"name": "getSum",
			"outputs": [
				{
					"internalType": "uint256",
					"name": "sum",
					"type": "uint256"
				}
			],
			"stateMutability": "pure",
			"type": "function"
		},
		{
			"inputs": [
				{
					"internalType": "address payable[]",
					"name": "_addresses",
					"type": "address[]"
				},
				{
					"internalType": "uint256[]",
					"name": "_amounts",
					"type": "uint256[]"
				}
			],
			"name": "multiTransferETH",
			"outputs": [],
			"stateMutability": "payable",
			"type": "function"
		},
		{
			"inputs": [
				{
					"internalType": "address",
					"name": "_token",
					"type": "address"
				},
				{
					"internalType": "address[]",
					"name": "_addresses",
					"type": "address[]"
				},
				{
					"internalType": "uint256[]",
					"name": "_amounts",
					"type": "uint256[]"
				}
			],
			"name": "multiTransferToken",
			"outputs": [],
			"stateMutability": "nonpayable",
			"type": "function"
		}
	]
}